:1000000001308A000F290000FF00030E8301A100C8
:100010000A08A0008A010408A2007708A300780853
:10002000A4007908A5007A08A600831383128C30F7
:100030008400001C1D280C182E2822088400230888
:10004000F7002408F8002508F9002608FA0020081F
:100050008A00210E8300FF0E7F0E09008A110A120A
:100060003F280A108A100A1182073F3406345B3495
:100070004F3466346D347D3407347F346F34A90ACD
:1000800029080A3C031D4C28A901281C4C28A70A52
:100090002708633C031CA7018E01CF308F002C3052
:1000A0008E000C108A110A121D28B53090008E01A6
:1000B000CF308F002C308E0083160C14C03083128A
:1000C0008B048A110A1231292F08F8012E02031815
:1000D0006C282E08F7007828F7010830B000AE0D24
:1000E000F70D2F0877020318F700F80DB00B6F28F3
:1000F00008002B08AE000A30AF0064207808AC007E
:100100002B08AE000A30AF0064207708AD002C0841
:100110003120AE000030AA008316870183122E081A
:1001200087002D083120AE008316880183122E0827
:1001300088008A110A1234292C080739F7002C0C80
:10014000F800F80CF80C1F30F80578082E0784002A
:1001500083132F188317F801F80AF70AB028F80D4F
:10016000F70BAF28AD080319B82878088004BB281E
:10017000F8097808800508002C080739F7002C0CCE
:10018000F800F80CF80C1F30F80578082D078400EB
:1001900083132E1883170008F800F70AD028F80CEC
:1001A000F70BCF2808002C308400831300080319B4
:1001B000E7280130F800F701F70BDC28F80BDB2803
:1001C0004A30F700F70BE228E528800BD928080011
:1001D0002B08AC000130AD00AF018030AE009C2098
:1001E0002B08AC00AE01AD01BC2078180C291430EE
:1001F000AC00D3202B08AC000130AD00AF01803043
:10020000AE009C202B08AC00AE01AD01BC207818DC
:100210000C290130F8000E290030F8000800A70171
:100220002810A901FF30AA0083161F149F141F1560
:100230009F1107309C0083131F3083050730860011
:10024000003087008312AA00831688008312AA0058
:100250008316870183128701831688018312880120
:1002600055282708AB0079283030AB00E820F80883
:10027000031941290130A806831606148312061CAF
:100280003C293130AB00E820F80803194D29281427
:10029000831686148312861C48293230AB00E8206E
:1002A000F80803195B29A7012810A9018316061570
:1002B0008312061D56291430AC00D3203129630067
:02400E00723FFF
:00000001FF
;PIC16F877A
;CRC=6AB3  CREATED="20-out-25 22:00"
