:1000000001308A0009290000FF00030E8301A100CE
:100010000A08A0008A010408A2007708A300780853
:10002000A4007908A5007A08A600831383128C30F7
:100030008400001C1D280C182E2822088400230888
:10004000F7002408F8002508F9002608FA0020081F
:100050008A00210E8300FF0E7F0E09008A110A120A
:100060003F280A108A100A1182073F3406345B3495
:100070004F3466346D347D3407347F346F34281C3C
:100080004628A70A2708633C031CA7018E010B30F2
:100090008F00DC308E000C108A110A121D28B5303A
:1000A00090008E010B308F00DC308E0083160C1414
:1000B000C03083128B048A110A122A292E08F801F3
:1000C0002D02031866282D08F7007228F701083062
:1000D000AF00AD0DF70D2E0877020318F700F80DED
:1000E000AF0B692808002A08AD000A30AE005E2078
:1000F0007808AB002A08AD000A30AE005E20770811
:10010000AC002B083120AD000030A9008316870118
:1001100083122D0887002C083120AD00831688013A
:1001200083122D0888008A110A122D292B080739FD
:10013000F7002B0CF800F80CF80C1F30F8057808C5
:100140002D07840083132E188317F801F80AF70A85
:10015000AA28F80DF70BA928AC080319B2287808CB
:100160008004B528F8097808800508002B080739AD
:10017000F7002B0CF800F80CF80C1F30F805780885
:100180002C07840083132D1883170008F800F70A42
:10019000CA28F80CF70BC92808002B3084008313F9
:1001A00000080319E1280130F800F701F70BD62801
:1001B000F80BD5284A30F700F70BDC28DF28800B36
:1001C000D32808002A08AB000130AC00AE01803013
:1001D000AD0096202A08AB00AD01AC01B62078181E
:1001E00006291430AB00CD202A08AB000130AC004A
:1001F000AE018030AD0096202A08AB00AD01AC0105
:10020000B620781806290130F80008290030F800D7
:100210000800A7012810FF30A90083161F149F149F
:100220001F159F1107309C0083131F308305073073
:100230008600003087008312A9008316880083128D
:10024000A900831687018312870183168801831210
:1002500088014F282708AA0073283030AA00E2201E
:10026000F80803193A290130A806831606148312E8
:10027000061C35293130AA00E220F8080319462966
:100280002814831686148312861C41293230AA0052
:10029000E220F80803195329A70128108316061530
:1002A0008312061D4E293230AB00CD202A2963006F
:02400E00723FFF
:00000001FF
;PIC16F877A
;CRC=11D2  CREATED="20-out-25 13:12"
